:100000000C9462000C944A040C9423040C948A000F
:100010000C948A000C948A000C948A000C948A0038
:100020000C948A000C948A000C948A000C9471043D
:100030000C948A000C948A000C948A000C948A0018
:100040000C94D9030C948A000C94A7030C9481039C
:100050000C948A000C948A000C948A000C948A00F8
:100060000C948A000C948A000000000023002600F3
:10007000290000000000240027002A0000000000E2
:10008000250028002B0004040404040404040202D4
:100090000202020203030303030301020408102007
:1000A0004080010204081020010204081020000012
:1000B0000008000201000003040700000000000027
:1000C0000000E50611241FBECFEFD8E0DEBFCDBF94
:1000D00011E0A0E0B1E0E8E7FEE002C005900D927B
:1000E000AC31B107D9F721E0ACE1B1E001C01D921C
:1000F000A23DB207E1F710E0C2E6D0E004C02197CC
:10010000FE010E943407C136D107C9F70E94850558
:100110000C943A070C940000AF92BF92CF92DF92FA
:10012000EF92FF920F931F93CF93DF936C017B01AC
:100130008B01040F151FEB015E01AE18BF08C0173D
:10014000D10759F06991D601ED91FC910190F081B0
:10015000E02DC6010995892B79F7C501DF91CF9173
:100160001F910F91FF90EF90DF90CF90BF90AF90D5
:100170000895FC01538D448D252F30E0842F90E0AD
:10018000821B930B541710F0CF9608950197089592
:10019000FC01918D828D981761F0A28DAE0FBF2F5B
:1001A000B11D5D968C91928D9F5F9F73928F90E0B1
:1001B00008958FEF9FEF0895FC01918D828D981720
:1001C00031F0828DE80FF11D858D90E008958FEF5D
:1001D0009FEF0895FC01918D228D892F90E0805C26
:1001E0009F4F821B91098F739927089585E391E0B2
:1001F0000E94EA0021E0892B09F420E0822F089573
:1002000080E090E0892B29F00E94F60081110C9487
:1002100000000895FC01A48DA80FB92FB11DA35AA9
:10022000BF4F2C91848D90E001968F739927848F16
:10023000A689B7892C93A089B1898C918370806439
:100240008C93938D848D981306C00288F389E02DDA
:1002500080818F7D80830895EF92FF920F931F938B
:10026000CF93DF93EC0181E0888F9B8D8C8D981369
:100270001AC0E889F989808185FF15C09FB7F89475
:10028000EE89FF896083E889F989808183708064C1
:1002900080839FBF81E090E0DF91CF911F910F910C
:1002A000FF90EF900895F62E0B8D10E00F5F1F4F1B
:1002B0000F731127E02E8C8D8E110CC00FB607FC2A
:1002C000FACFE889F989808185FFF5CFCE010E94B8
:1002D0000A01F1CFEB8DEC0FFD2FF11DE35AFF4F1B
:1002E000F0829FB7F8940B8FEA89FB898081806246
:1002F000CFCFCF93DF93EC01888D8823B9F0AA8903
:10030000BB89E889F9898C9185FD03C0808186FDD0
:100310000DC00FB607FCF7CF8C9185FFF2CF80811F
:1003200085FFEDCFCE010E940A01E9CFDF91CF9189
:100330000895833081F028F4813099F08230A9F05B
:1003400008958730A9F08830C9F08430B1F48091E5
:1003500080008F7D03C0809180008F778093800024
:10036000089584B58F7784BD089584B58F7DFBCFC4
:100370008091B0008F778093B00008958091B00095
:100380008F7DF9CF1F93CF93DF93282F30E0F901B2
:10039000E255FF4F8491F901E656FF4FD491F901E0
:1003A000EA57FF4FC491CC23A9F0162F81110E9468
:1003B0009901EC2FF0E0EE0FFF1FE458FF4FA591DD
:1003C000B4918FB7F894EC91111108C0D095DE2349
:1003D000DC938FBFDF91CF911F910895DE2BF8CF73
:1003E000CF93DF9390E0FC01E656FF4F24918A57AC
:1003F0009F4FFC0184918823C9F090E0880F991FDA
:10040000FC01EE58FF4FA591B491FC01E458FF4F59
:10041000C591D49161110DC09FB7F8948C9120952E
:1004200082238C938881282328839FBFDF91CF91DB
:100430000895623051F49FB7F8943C91822F8095D3
:1004400083238C93E8812E2BEFCF8FB7F894EC9118
:100450002E2B2C938FBFEACF3FB7F89480912F01BA
:1004600090913001A0913101B091320126B5A89B45
:1004700005C02F3F19F00196A11DB11D3FBFBA2F36
:10048000A92F982F8827BC01CD01620F711D811DF6
:10049000911D42E0660F771F881F991F4A95D1F77B
:1004A00008958F929F92AF92BF92CF92DF92EF9278
:1004B000FF920E942C024B015C018AE0C82ED12CD5
:1004C000E12CF12C0E942C02681979098A099B09F8
:1004D000683E734081059105A8F321E0C21AD10856
:1004E000E108F10888EE880E83E0981EA11CB11C7B
:1004F000C114D104E104F10429F7FF90EF90DF90DB
:10050000CF90BF90AF909F908F90089508958F9255
:100510009F92AF92BF920F931F93CF93DF93CDB76C
:10052000DEB7A1970FB6F894DEBF0FBECDBF19A2FC
:10053000423008F44AE08E010F5D1F4F842E912C4B
:10054000B12CA12CA50194010E941207E62FB9013C
:10055000CA01EA3044F5E05DD801EE938D01232B0A
:10056000242B252B79F790E080E0109769F0FD01AE
:1005700001900020E9F73197AF014A1B5B0BBD01E9
:1005800085E391E00E948C00A1960FB6F894DEBF3F
:100590000FBECDBFDF91CF911F910F91BF90AF9054
:1005A0009F908F900895E95CD7CF42E050E068E1DA
:1005B00071E085E391E00C948C00CF92DF92EF9292
:1005C000FF92CF93DF936C01990FEE08FF08F7FEBF
:1005D0001DC06DE285E391E00E942C01EC016627CD
:1005E0007727CB016C197D098E099F094AE00E948B
:1005F0008702C80FD91F0E94D5028C0F9D1FDF9163
:10060000CF91FF90EF90DF90CF9008954AE0C7011F
:10061000B6010E948702EC01EECFCF93DF93809169
:100620001E0190911F01892B09F063C080911C016C
:1006300090911D01019690931D0180931C010E94D1
:10064000DD0280911C0190911D01893C910544F0CF
:1006500060E084E00E94C20110921D0110921C0112
:10066000E0EBF0E08491ECE9F0E0D491E8E8F0E030
:10067000C491CC2309F442C081110E949901EC2F4E
:10068000F0E0EE0FFF1FE859FF4FA591B491EC91F8
:10069000ED2331E020E009F430E0832F922F909396
:1006A0001F0180931E012091000130910101281744
:1006B0003907C1F08130910551F420913301309117
:1006C00034012F5F3F4F3093340120933301209149
:1006D0003301309134012430310524F0109234017B
:1006E000109233019093010180930001DF91CF912B
:1006F000089510921D0110921C01A3CF90E080E09C
:10070000CECF1F920F920FB60F9211242F933F93CB
:100710004F935F936F937F938F939F93AF93BF9309
:10072000EF93FF9385E391E00E940A01FF91EF911F
:10073000BF91AF919F918F917F916F915F914F91F9
:100740003F912F910F900FBE0F901F9018951F9201
:100750000F920FB60F9211242F938F939F93EF93C5
:10076000FF93E0914501F09146018081E0914B01BA
:10077000F0914C0182FD1BC0908180914E018F5FF2
:100780008F7320914F01821741F0E0914E01F0E00C
:10079000EB5CFE4F958F80934E01FF91EF919F91FF
:1007A0008F912F910F900FBE0F901F901895808101
:1007B000F4CF1F920F920FB60F9211242F933F93F5
:1007C0008F939F93AF93BF9380912B0190912C01B6
:1007D000A0912D01B0912E0130912A0123E0230F29
:1007E0002D3758F50196A11DB11D20932A01809344
:1007F0002B0190932C01A0932D01B0932E01809199
:100800002F0190913001A0913101B09132010196F8
:10081000A11DB11D80932F0190933001A093310150
:10082000B0933201BF91AF919F918F913F912F91E2
:100830000F900FBE0F901F90189526E8230F029679
:10084000A11DB11DD2CF1F920F920FB60F9211248E
:100850002F933F934F935F936F937F938F939F93C8
:10086000AF93BF93EF93FF93E0910401F0910501E3
:100870000995FF91EF91BF91AF919F918F917F91DA
:100880006F915F914F913F912F910F900FBE0F90FD
:100890001F9018951F920F920FB60F9211242F934D
:1008A0003F934F935F936F937F938F939F93AF93F8
:1008B000BF93EF93FF93E0910201F091030109953B
:1008C000FF91EF91BF91AF919F918F917F916F9128
:1008D0005F914F913F912F910F900FBE0F901F90FE
:1008E00018951F920F920FB60F921124CF92DF929C
:1008F000EF92FF922F933F934F935F936F937F936A
:100900008F939F93AF93BF93CF93DF93EF93FF9317
:10091000C0902601D0902701E0902801F090290195
:100920008FEFC81AD80AE80AF80AC0922601D092B6
:100930002701E0922801F0922901809124019091F1
:100940002501019690932501809324018091330124
:1009500090913401892B09F4CAC0809122019091B1
:100960002301892B09F0BAC060E086E00E94C20131
:100970008AE0C816D104E104F10414F1C091200109
:10098000D09121012196D0932101C0932001109292
:10099000260110922701109228011092290161E08E
:1009A00085E00E94F001209709F051C060E085E0E9
:1009B0000E94C20180912001909121010E94DD02DC
:1009C00080912001909121018F3F910521F4109297
:1009D0002101109220018091330190913401892BE3
:1009E00021F4109221011092200181E480937C0077
:1009F00080917A00806480937A0080917A0086FDED
:100A0000FCCF9091780080917900892798278927D9
:100A1000873991050CF072C01092230110922201C7
:100A2000FF91EF91DF91CF91BF91AF919F918F9106
:100A30007F916F915F914F913F912F91FF90EF9038
:100A4000DF90CF900F900FBE0F901F901895CF3F63
:100A5000D10511F461E0ABCFE3EBF0E0E491E330DA
:100A600019F140F4E130B1F0E230C9F0C038D105FD
:100A70008CF79CCFE73011F1E83041F1E430B1F769
:100A800080918000806280938000D0938B00C0931F
:100A90008A0090CF84B5806884BDC7BD8BCF84B5F4
:100AA000806284BDC8BD86CF8091800080688093BD
:100AB0008000D0938900C09388007CCF8091B000E3
:100AC00080688093B000C093B30074CF8091B00071
:100AD00080628093B000C093B4006CCF61E086E088
:100AE0000E94C20160E085E00E94C20174CF60E014
:100AF00085E00E94C20160E086E0F6CF81E090E0F0
:100B000090932301809322018BCF789484B58260E7
:100B100084BD84B5816084BD85B5826085BD85B5A1
:100B2000816085BD80916E00816080936E0010921F
:100B3000810080918100826080938100809181009A
:100B4000816080938100809180008160809380002B
:100B50008091B10084608093B1008091B000816089
:100B60008093B00080917A00846080937A008091B5
:100B70007A00826080937A0080917A00816080930D
:100B80007A0080917A00806880937A001092C10088
:100B900061E084E00E94C2018DE093E09093030144
:100BA00080930201809169008C7F80936900E89AAC
:100BB000E0914501F091460182E08083E09141019E
:100BC000F09142011082E0914301F09144018FECD9
:100BD000808310924D01E0914901F0914A0186E035
:100BE0008083E0914701F09148018081806180839A
:100BF000E0914701F0914801808188608083E09115
:100C00004701F0914801808180688083E09147012D
:100C1000F091480180818F7D808361E08CE00E94AB
:100C2000F00161E08AE00E94F00161E088E00E944A
:100C3000F00161E086E00E94F00161E085E00E9441
:100C4000F00161E084E00E94F00160E08FE00E942A
:100C5000F00160E081E10E94F00162E082E00E9428
:100C6000F00161E08DE00E94F001F89410928000A4
:100C70001092810088E09DE3909389008093880022
:100C800080918100886080938100809181008160E3
:100C90008093810080918100809381008091810008
:100CA0008093810080916F00826080936F007894C0
:100CB00000E010E08091330190913401019749F5F3
:100CC000D0E0C0E061E08CE00E94C201809133017D
:100CD00090913401029749F00E9451020E94D5027E
:100CE0002196C13187E2D80769F7D0E0C0E060E023
:100CF0008CE00E94C20180913301909134010297EF
:100D000041F00E9451020E94D5022196C536D105BC
:100D100071F78091330190913401029719F5D0E079
:100D2000C0E061E08AE00E94C2010E9451020E947C
:100D3000D502E0903301F090340183E0E816F1042D
:100D400029F02196C53F81E0D80759F760E08AE095
:100D50000E94C20182E0E816F10421F410923401ED
:100D6000109233018091330190913401039709F57A
:100D700061E088E00E94C201D0E0C0E00E94510220
:100D80000E94D502E0903301F0903401E114F104A7
:100D900021F02196C93CD10589F760E088E00E94E6
:100DA000C20183E0E816F10421F41092340110929C
:100DB00033010115110509F47DCF0E94F600882347
:100DC00009F478CF0E94000075CFE5E3F1E01382CB
:100DD000128288EE93E0A0E0B0E084839583A6833E
:100DE000B7838AE091E09183808385EC90E09587DA
:100DF000848784EC90E09787868780EC90E0918BE5
:100E0000808B81EC90E0938B828B82EC90E0958BD1
:100E1000848B86EC90E0978B868B118E128E138ECE
:100E2000148E0895A1E21A2EAA1BBB1BFD010DC052
:100E3000AA1FBB1FEE1FFF1FA217B307E407F5078A
:100E400020F0A21BB30BE40BF50B661F771F881F66
:100E5000991F1A9469F760957095809590959B01FC
:100E6000AC01BD01CF010895EE0FFF1F0590F49175
:080E7000E02D0994F894FFCF76
:100E7800010086028602000000002C018C00B900E7
:0C0E88007901EA00C800DC000D0A00003F
:107800000C94343C0C94513C0C94513C0C94513CE1
:107810000C94513C0C94513C0C94513C0C94513CB4
:107820000C94513C0C94513C0C94513C0C94513CA4
:107830000C94513C0C94513C0C94513C0C94513C94
:107840000C94513C0C94513C0C94513C0C94513C84
:107850000C94513C0C94513C0C94513C0C94513C74
:107860000C94513C0C94513C11241FBECFEFD8E036
:10787000DEBFCDBF11E0A0E0B1E0ECE9FFE702C060
:1078800005900D92A230B107D9F712E0A2E0B1E065
:1078900001C01D92AD30B107E1F70E942D3D0C945F
:1078A000CC3F0C94003C982F959595959595959582
:1078B000905D8F708A307CF0282F295A8091C0000B
:1078C00085FFFCCF9093C6008091C00085FFFCCF60
:1078D0002093C6000895282F205DF0CF982F809127
:1078E000C00085FFFCCF9093C6000895EF92FF92F1
:1078F0000F931F93EE24FF2487018091C00087FD22
:1079000017C00894E11CF11C011D111D81E4E8164B
:1079100082E4F8068FE0080780E0180770F3E09132
:107920000401F091050109958091C00087FFE9CF1E
:107930008091C6001F910F91FF90EF9008950E94D3
:10794000763C982F8091C00085FFFCCF9093C600B5
:1079500091362CF490330CF09053892F089597555D
:10796000892F08951F930E949F3C182F0E949F3CCF
:107970001295107F810F1F9108951F93182F882350
:1079800021F00E94763C1150E1F71F9108951F935A
:10799000182F0E94763C803249F0809103018F5F5E
:1079A000809303018530C1F01F9108958091C0003C
:1079B00085FFFCCF84E18093C6008091C00085FFE5
:1079C000FCCF1093C6008091C00085FFFCCF80E102
:1079D0008093C6001F910895E0910401F091050184
:1079E00009951F9108950E94763C803241F0809164
:1079F00003018F5F80930301853081F008958091AA
:107A0000C00085FFFCCF84E18093C6008091C00058
:107A100085FFFCCF80E18093C6000895E0910401CA
:107A2000F09105010995089540E951E08823A1F0FE
:107A30002D9A28EE33E0FA013197F1F721503040CA
:107A4000D1F72D9828EE33E0FA013197F1F7215064
:107A50003040D1F7815061F708953F924F925F9285
:107A60006F927F928F929F92AF92BF92CF92DF924E
:107A7000EF92FF920F931F93CF93DF93000080E16B
:107A80008093C4001092C50088E18093C10086E015
:107A90008093C2005098589A259A81E00E94143D24
:107AA00024E1F22E9EE1E92E85E9D82E0FE0C02ECA
:107AB00010E1B12EAA24A394B1E49B2EA6E58A2E50
:107AC000F2E57F2EE0E26E2E79E4572E63E5462E36
:107AD00050E5352E0E94763C8033B1F18133B9F107
:107AE000803409F46FC0813409F476C0823409F41B
:107AF00085C0853409F488C0803531F1823521F1A3
:107B0000813511F1853509F485C0863509F48DC0BC
:107B1000843609F496C0843709F403C1853709F423
:107B200072C1863709F466C0809103018F5F80932C
:107B30000301853079F6E0910401F0910501099582
:107B40000E94763C803351F60E94F33CC3CF0E94E2
:107B5000763C803249F78091C00085FFFCCFF092DF
:107B6000C6008091C00085FFFCCF9092C600809136
:107B7000C00085FFFCCF8092C6008091C00085FFC9
:107B8000FCCF7092C6008091C00085FFFCCF609250
:107B9000C6008091C00085FFFCCF5092C600809146
:107BA000C00085FFFCCF4092C6008091C00085FFD9
:107BB000FCCF3092C6008091C00085FFFCCFB09210
:107BC000C60088CF0E94763C863808F4BDCF0E945C
:107BD000763C0E94F33C7ECF0E94763C803809F4CC
:107BE0009CC0813809F40BC1823809F43CC1883942
:107BF00009F48FC080E00E94C73C6CCF84E10E94F2
:107C0000BD3C0E94F33C66CF85E00E94BD3C0E94D3
:107C1000F33C60CF0E94763C809306010E94763C44
:107C2000809307010E94F33C55CF0E94763C80333D
:107C300009F41DC183E00E94BD3C80E00E94C73C66
:107C400049CF0E94763C809309020E94763C809343
:107C5000080280910C028E7F80930C020E94763C79
:107C6000853409F415C18091080290910902892B8D
:107C700089F000E010E00E94763CF801E85FFE4FDA
:107C800080830F5F1F4F80910802909109020817AF
:107C9000190788F30E94763C803209F045CF809125
:107CA0000C0280FF01C16091060170910701660F0F
:107CB000771F7093070160930601A0910802B091AD
:107CC00009021097C9F0E8E0F1E09B01AD014E0F09
:107CD0005F1FF999FECF32BD21BD819180BDFA9A17
:107CE000F99A2F5F3F4FE417F50799F76A0F7B1F4B
:107CF00070930701609306018091C00085FFFCCF5F
:107D0000F092C6008091C00085FFFCCFB092C60003
:107D1000E1CE83E00E94C73CDDCE82E00E94C73CFA
:107D2000D9CE0E94763C809309020E94763C8093D3
:107D300008028091060190910701880F991F909386
:107D40000701809306010E94763C853409F4A6C0A1
:107D500080910C028E7F80930C020E94763C8032D0
:107D600009F0B8CE8091C00085FFFCCFF092C6002C
:107D7000609108027091090261157105B9F140E046
:107D800050E080910C02A82FA170B82FB27011C0E2
:107D9000BB2309F45CC0E0910601F0910701319624
:107DA000F0930701E09306014F5F5F4F46175707B7
:107DB000E8F4AA2369F3F999FECF209106013091E6
:107DC000070132BD21BDF89A90B58091C00085FFB2
:107DD000FCCF9093C6002F5F3F4F30930701209355
:107DE00006014F5F5F4F4617570718F38091C00099
:107DF00085FDE5CE8091C00085FFF8CFE0CE81E023
:107E00000E94C73C67CE0E94763C803209F08CCE3F
:107E10008091C00085FFFCCFF092C6008091C00029
:107E200085FFFCCFE092C6008091C00085FFFCCFAB
:107E3000D092C6008091C00085FFFCCFC092C600E2
:107E40008091C00085FFFCCFB092C60043CEE09188
:107E50000601F091070194918091C00085FFFCCF4D
:107E60009093C6009CCF80E10E94C73C33CE0E9415
:107E7000763C0E94763C182F0E94763C112309F430
:107E800083C0113009F484C08FE00E94C73C22CE29
:107E900080910C02816080930C02E5CE80910C02EF
:107EA000816080930C0259CF809107018823880F4D
:107EB000880B8A2180930B02809106019091070123
:107EC000880F991F90930701809306018091080203
:107ED00080FF09C080910802909109020196909359
:107EE000090280930802F894F999FECF1127E091D6
:107EF0000601F0910701C8E0D1E08091080290915D
:107F00000902103091F40091570001700130D9F34B
:107F100003E000935700E89500915700017001308D
:107F2000D9F301E100935700E89509901990009169
:107F3000570001700130D9F301E000935700E89534
:107F40001395103498F011270091570001700130FB
:107F5000D9F305E000935700E895009157000170B0
:107F60000130D9F301E100935700E895329602976A
:107F700009F0C7CF103011F00296E5CF112480919F
:107F8000C00085FFB9CEBCCE8EE10E94C73CA2CD19
:0C7F900085E90E94C73C9ECDF894FFCF0D
:027F9C00800063
:040000030000780081
:00000001FF
